:0400000015EF11F0F7
:100600000054494D4520202020204556202053509D
:100610000A0D004C4F47532041524520434C454161
:100620005245440054494D45202020202045562065
:100630002020535000232054494D452020202045A0
:100640005620205350005345542054494D452020F6
:1006500020202020200056494557204C4F4720207D
:10066000202020202000434C454152204C4F472061
:10067000202020202000444F574E4C4F4144204C16
:100680004F4720202000446F776E6C6F6164696E65
:1006900067206C6F67005468726F756768205541FA
:1006A0005254004E6F204C6F67732E2E2E20005434
:1006B0006F20446F776E6C6F6164004E4F206C6FDB
:1006C00067732E2E2E00546F2076696577200048C0
:1006D00048204D4D205353004731004732004733E7
:1006E00000473400474E004F4E004752002D630034
:0106F0000009
:1006F200CF0E036E0350D8A4060E046E800E056E54
:1007020054EC10F000016E516F11D8A48BEF03F07E
:100712008DEF03F0C1EF03F072510A0DF3CF0AF02F
:10072200F4CF0BF073510A26000E0B22F00E0A24AE
:10073200416EFD0E0B20426E75510A0DF3CF0AF089
:10074200F4CF0BF076510A26000E0B22F00E0A248B
:100752003F6EFD0E0B20406E78510A0DF3CF0AF06A
:10076200F4CF0BF079510A26000E0B22F00E0A2468
:100772003D6EFD0E0B203E6E000E6F6F010E6E6F12
:10078200020E5F18D8A4C8EF03F0CAEF03F0DAEF45
:1007920003F0010E4324016E000E4420026E000E8F
:1007A200046E030E036E8AEC10F001C043F002C027
:1007B20044F05F04D8A4E0EF03F0E2EF03F034EF7B
:1007C20004F043504410D8A4E9EF03F0EBEF03F038
:1007D200FDEF03F0414A422A180E41184210D8A4F4
:1007E200F5EF03F0F7EF03F034EF04F0000E426E82
:1007F200000E416E34EF04F043044410D8A404EF19
:1008020004F006EF04F018EF04F03F4A402A3C0ED1
:100812003F184010D8A410EF04F012EF04F034EFA8
:1008220004F0000E406E000E3F6E34EF04F0020E34
:1008320043184410D8A420EF04F022EF04F034EF60
:1008420004F03D4A3E2A3C0E3D183E10D8A42CEF3F
:1008520004F02EEF04F034EF04F0000E3E6E000EB2
:100862003D6E34EF04F049500A6E4A500B6E494A0D
:100872004A2A580E0A5C020E0B58D8B043EF04F015
:1008820045EF04F0B1EF04F0C00E086E41C001F074
:1008920042C002F0000E046E0A0E036E1AEC10F053
:1008A2000150300F07EC12F0C10E086E41C001F08A
:1008B20042C002F0000E046E0A0E036E8AEC10F0C3
:1008C2000150300F07EC12F0C20E086E3A0E07EC20
:1008D20012F0C30E086E3FC001F040C002F0000EDD
:1008E200046E0A0E036E1AEC10F00150300F07EC82
:1008F20012F0C40E086E3FC001F040C002F0000EBC
:10090200046E0A0E036E8AEC10F00150300F07ECF1
:1009120012F0C50E086E3A0E07EC12F0C60E086E03
:100922003DC001F03EC002F0000E046E0A0E036EDE
:100932001AEC10F00150300F07EC12F0C70E086EDF
:100942003DC001F03EC002F0000E046E0A0E036EBE
:100952008AEC10F00150300F07EC12F008EF05F0AE
:1009620049500A6E4A500B6E494A4A2AE80E0A5CFE
:10097200030E0B58D8B0C0EF04F0C2EF04F002EF40
:1009820005F043504410D8A4C9EF04F0CBEF04F0B3
:10099200D7EF04F0C00E086E200E07EC12F0C10E65
:1009A200086E200E07EC12F008EF05F04304441025
:1009B200D8A4DEEF04F0E0EF04F0ECEF04F0C30E95
:1009C200086E200E07EC12F0C40E086E200E07EC23
:1009D20012F008EF05F0020E43184410D8A4F4EF09
:1009E20004F0F6EF04F008EF05F0C60E086E200ED4
:1009F20007EC12F0C70E086E200E07EC12F008EF9B
:100A020005F0000E4A6E000E496E08EF05F0040E66
:100A12005F18D8A40FEF05F011EF05F074EF05F0A1
:100A220041C001F042C002F0000E046E0A0E036ED5
:100A32008AEC10F001C00AF002C00BF041C001F0D4
:100A420042C002F0000E046E0A0E036E1AEC10F0A1
:100A52000138F00B0A10086E020EDDEC11F03FC0F7
:100A620001F040C002F0000E046E0A0E036E8AEC22
:100A720010F001C00AF002C00BF03FC001F040C00C
:100A820002F0000E046E0A0E036E1AEC10F001382A
:100A9200F00B0A10086E010EDDEC11F03DC001F002
:100AA2003EC002F0000E046E0A0E036E8AEC10F0D5
:100AB20001C00AF002C00BF03DC001F03EC002F0DE
:100AC200000E046E0A0E036E1AEC10F00138F00BE1
:100AD2000A10086E000EDDEC11F0000E546E000ECE
:100AE200536E7FEF05F0050E5F18D8A47BEF05F07B
:100AF2007DEF05F07FEF05F06EEF05F01200555027
:100B02005610D8A487EF05F089EF05F0C9EF05F07C
:100B1200474A482A47504810D8B492EF05F094EF5C
:100B220005F0B3EF05F0E90E475C030E4858D8B064
:100B32009DEF05F09FEF05F0B3EF05F0A30E036EF6
:100B42000350D8A4060E046E800E056E54EC10F00D
:100B5200C60E036E0350D8A4060E046EC00E056EB8
:100B620054EC10F0E80E471807E1030E4818D8A419
:100B7200BDEF05F0BFEF05F079EF07F0000E546E00
:100B8200010E536E000E526E000E516E79EF07F099
:100B9200350E036E0350D8A4060E046E800E056E49
:100BA20054EC10F0000E0F6E000E0E6E1EEF07F0EA
:100BB2004B500E24016E4C500F20026E000E046E3C
:100BC2000A0E036E8AEC10F001C00CF002C00DF0A8
:100BD2000A0E0C02F3CF0AF0F4CF0BF00D02F35021
:100BE2000B260AC04DF00BC04EF00F0E0E02F3CFD3
:100BF2000AF0F4CF0BF00F02F3500B26000E0A247A
:100C0200D96E010E0B20DA6E4D509EEC11F0DF6EA4
:100C12004D4A4E2A0F0E0E02F3CF0AF0F4CF0BF01C
:100C22000F02F3500B26010E0A24D96E010E0B207F
:100C3200DA6E4D509EEC11F0DF6E4D4A4E2A0F0EC9
:100C42000E02F3CF0AF0F4CF0BF00F02F3500B2693
:100C5200020E0A24D96E010E0B20DA6E3A0EDF6EF6
:100C62000F0E0E02F3CF0AF0F4CF0BF00F02F35087
:100C72000B26030E0A24D96E010E0B20DA6E4D509C
:100C82009EEC11F0DF6E4D4A4E2A0F0E0E02F3CF8C
:100C92000AF0F4CF0BF00F02F3500B26040E0A24D5
:100CA200D96E010E0B20DA6E4D509EEC11F0DF6E04
:100CB2004D4A4E2A0F0E0E02F3CF0AF0F4CF0BF07C
:100CC2000F02F3500B26050E0A24D96E010E0B20DB
:100CD200DA6E3A0EDF6E0F0E0E02F3CF0AF0F4CF89
:100CE2000BF00F02F3500B26060E0A24D96E010EEA
:100CF2000B20DA6E4D509EEC11F0DF6E4D4A4E2AFB
:100D02000F0E0E02F3CF0AF0F4CF0BF00F02F350E6
:100D12000B26070E0A24D96E010E0B20DA6E4D50F7
:100D22009EEC11F0DF6E4D4A4E2A0F0E0E02F3CFEB
:100D32000AF0F4CF0BF00F02F3500B26080E0A2430
:100D4200D96E010E0B20DA6E200EDF6E0F0E0E0230
:100D5200F3CF0AF0F4CF0BF00F02F3500B26090E7B
:100D62000A24D96E010E0B20DA6E4D509EEC11F062
:100D7200DF6E4D4A4E2A0F0E0E02F3CF0AF0F4CF69
:100D82000BF00F02F3500B260A0E0A24D96E010E45
:100D92000B20DA6E4D509EEC11F0DF6E4D4A4E2A5A
:100DA2000F0E0E02F3CF0AF0F4CF0BF00F02F35046
:100DB2000B260B0E0A24D96E010E0B20DA6E200EC2
:100DC200DF6E0F0E0E02F3CF0AF0F4CF0BF00F021C
:100DD200F3500B260C0E0A24D96E010E0B20DA6E8C
:100DE2004D509EEC11F0DF6E4D4A4E2A0F0E0E0250
:100DF200F3CF0AF0F4CF0BF00F02F3500B260D0ED7
:100E02000A24D96E010E0B20DA6E4D509EEC11F0C1
:100E1200DF6E4D4A4E2A0F0E0E02F3CF0AF0F4CFC8
:100E22000BF00F02F3500B260E0E0A24D96E010EA0
:100E32000B20DA6EDF6A0E4A0F2A55500E5C5650AE
:100E42000F58D8A027EF07F029EF07F0D9EF05F0E8
:100E5200020E5F18D8A430EF07F032EF07F047EF29
:100E620007F0FF0E55240A6EFF0E56200B6E0A5035
:100E7200595C0B505A58D8B041EF07F043EF07F0D6
:100E820047EF07F0594A5A2A5BEF07F05F04D8A4EC
:100E92004DEF07F04FEF07F05BEF07F059505A1094
:100EA200D8B456EF07F058EF07F05BEF07F059069A
:100EB200D8A05A06C00E086E5950300F07EC12F037
:100EC200C10E086E200E07EC12F00F0E5902F3CF7E
:100ED2000AF0F4CF0BF05A02F3500B26000E0A244C
:100EE200036E010E0B20046EC20E056E54EC10F060
:100EF20012001950800B266E195019242D6E18AE4F
:100F020085EF07F087EF07F088EF07F02D802D506F
:100F1200D8B48EEF07F090EF07F0A4EF07F02D287A
:100F2200D8A496EF07F098EF07F0A0EF07F0000EB5
:100F3200166E000E176E000E186E000E196E188EC9
:100F4200196AACEF07F0000E166E000E176E000E57
:100F5200186E000E196E1D50800B261A1D501D248E
:100F62002E6E1CAEB7EF07F0B9EF07F0BAEF07F03D
:100F72002E802E50D8B4C0EF07F0C2EF07F0D6EFA4
:100F820007F02E28D8A4C8EF07F0CAEF07F0D2EF77
:100F920007F0000E1A6E000E1B6E000E1C6E000E85
:100FA2001D6E1C8E1D6ADEEF07F0000E1A6E000E1B
:100FB2001B6E000E1C6E000E1D6E1A501B101C10B4
:100FC2001D10D8A4E7EF07F0E9EF07F001EF08F0F2
:100FD200000E166E000E176E000E186E000E196EC1
:100FE200800E18127F0E19122650191216C016F012
:100FF20017C017F018C018F019C019F041EF09F026
:101002002D50D8A407EF08F009EF08F013EF08F00D
:10101200000E166E000E176E000E186E000E196E80
:1010220041EF09F02E502DC01EF01F6A1E5E000E09
:101032001F5A7F0E1E24276E000E1F20286E16C018
:1010420022F017C023F018C024F019C025F0000EBA
:10105200166E000E176E000E186E000E196E000E40
:10106200296E000E2A6E000E2B6E000E2C6E2E6A5A
:1010720073EF08F02E50D8B441EF08F043EF08F0B8
:101082005AEF08F0D8902236233624362536D890E7
:1010920016361736183619362CAE52EF08F054EFC2
:1010A20008F055EF08F01680D89029362A362B36EC
:1010B2002C361A50225C1B5023581C5024581D50A9
:1010C2002558D8A067EF08F069EF08F072EF08F032
:1010D2002C8C1A50225E1B50235A1C50245A1D502D
:1010E200255A2E2A190E2E6479EF08F07BEF08F0AC
:1010F2003BEF08F02250231024102510D8B484EFBF
:1011020008F086EF08F09EEF08F029809EEF08F0C5
:10111200D89016361736183619362CAE93EF08F0DB
:1011220095EF08F096EF08F01680D89029362A3607
:101132002B362C362706D8A0280618AEA3EF08F0C7
:10114200A5EF08F089EF08F02E6A2CAEABEF08F09D
:10115200ADEF08F0D1EF08F0FF0E29141E6EFF0E5E
:101162002A141F6EFF0E2B14206E7F0E2C14216E7C
:101172001E501F1020102110D8B4C2EF08F0C4EF87
:1011820008F0C8EF08F0010E2E6ED1EF08F016A09D
:10119200CDEF08F0CFEF08F0D1EF08F0C4EF08F080
:1011A2002E50D8B4D7EF08F0D9EF08F0FDEF08F0D1
:1011B200010E1626000E17221822192219A0E4EF9A
:1011C20008F0E6EF08F0FDEF08F016C01EF017C0B9
:1011D2001FF018C020F019C021F021342132203232
:1011E2001F321E321EC016F01FC017F020C018F0AA
:1011F20021C019F0274A282A28BE08EF09F02850F2
:1012020008E12728D8A008EF09F00AEF09F015EF46
:1012120009F0000E286E2768000E166E000E176E7B
:10122200000E186E000E196E28BE22EF09F028502B
:1012320006E12704D8B020EF09F022EF09F02FEFE2
:1012420009F0000E286E000E276E000E166E000EBC
:10125200176E000E186E000E196E266A27C02DF04A
:101262002DA036EF09F038EF09F03BEF09F0188EA8
:101272003CEF09F0189ED8902D30196EF5EF07F06B
:101282001200FAEC11F05BEC0FF0010E9CEC0FF087
:101292005F6E53505410D8A451EF09F053EF09F088
:1012A20066EF09F027EC0CF0040E5F18D8A45CEF8F
:1012B20009F05EEF09F044EF09F0000E546E010EE2
:1012C200536E44EF09F044EF09F053045410D8A4CC
:1012D2006DEF09F06FEF09F02CEF0AF099EC0DF0C9
:1012E200040E5F18D8A478EF09F07AEF09F014EF32
:1012F2000AF04F505010D8A481EF09F083EF09F0A3
:1013020097EF09F051505210D8A48AEF09F08CEFF0
:1013120009F097EF09F0000E016E010E81EC11F059
:10132200000E546E020E536E44EF09F04F505010EF
:10133200D8A49EEF09F0A0EF09F0A9EF09F051043B
:101342005210D8B4A7EF09F0A9EF09F0BBEF09F0EA
:101352004F045010D8A4B0EF09F0B2EF09F0C6EF75
:1013620009F051505210D8A4B9EF09F0BBEF09F0BF
:10137200C6EF09F0000E016E010E81EC11F0000EB5
:10138200546E030E536E44EF09F04F045010D8A46C
:10139200CDEF09F0CFEF09F0D8EF09F05104521068
:1013A200D8B4D6EF09F0D8EF09F0EBEF09F0020E4E
:1013B2004F185010D8A4E0EF09F0E2EF09F0F6EF71
:1013C20009F051505210D8A4E9EF09F0EBEF09F0FF
:1013D200F6EF09F0000E016E010E81EC11F0000E25
:1013E200546E040E536E44EF09F0020E4F18501063
:1013F200D8A4FEEF09F000EF0AF064EF09F05104FF
:101402005210D8A407EF0AF009EF0AF064EF09F0CE
:10141200000E016E010E81EC11F0000E546E050EED
:10142200536E44EF09F0050E5F18D8A41BEF0AF0C3
:101432001DEF0AF044EF09F0000E016E010E81EC7F
:1014420011F0000E546E000E536E000E506E000E20
:101452004F6E44EF09F0020E53185410D8A434EF23
:101462000AF036EF0AF043EF0AF080EC05F0050EC1
:101472005F18D8A43FEF0AF041EF0AF044EF09F0F9
:101482005EEF09F0030E53185410D8A44BEF0AF084
:101492004DEF0AF051EF0AF00DEC0FF044EF09F0B6
:1014A200040E53185410D8A459EF0AF05BEF0AF057
:1014B20061EF0AF080EC05F071EC0AF044EF09F0FC
:1014C200050E53185410D8A469EF0AF06BEF0AF016
:1014D20044EF09F079EC03F044EF09F000EF00F07B
:1014E20055505610D8A478EF0AF07AEF0AF0BDEF03
:1014F2000AF0000E016E010E81EC11F0BB0E036EBC
:101502000350D8A4060E046E800E056E54EC10F043
:10151200AF0E036E0350D8A4060E046EC00E056E05
:1015220054EC10F0200E086EA10E096E070E0A6E22
:10153200000E0B6E0806000E095A0A5A0B5A0828AA
:101542000AE1092808E10A2806E10B28D8A4ACEF31
:101552000AF0AEEF0AF09BEF0AF0000E016E010EE8
:1015620081EC11F0000E546E010E536E000E526E9D
:10157200000E516E40EF0BF0000E016E010E81EC79
:1015820011F0860E036E0350D8A4060E046E800E70
:10159200056E54EC10F0960E036E0350D8A4060E9E
:1015A200046EC00E056E54EC10F0200E0C6EA10EEF
:1015B2000D6E070E0E6E000E0F6E0C06000E0D5A0B
:1015C2000E5A0F5A0C280AE10D2808E10E2806E1EE
:1015D2000F28D8A4EFEF0AF0F1EF0AF0DEEF0AF0DD
:1015E200010E026E0250D8A4060E036EBCEC10F07F
:1015F200000E156E000E146E1AEF0BF00F0E140291
:10160200F3CF06F0F4CF07F01502F3500726000ED1
:101612000624026E010E0720036EBCEC10F0100EC1
:10162200026E0250D8A4060E036EBCEC10F0144AEF
:10163200152A5550145C56501558D8A023EF0BF0BC
:1016420025EF0BF0FFEF0AF0200E106EA10E116EC7
:10165200070E126E000E136E1006000E115A125A69
:10166200135A10280AE1112808E1122806E113286A
:10167200D8A43EEF0BF040EF0BF02DEF0BF0000E75
:10168200546E010E536E000E526E000E516E000E1D
:10169200506E000E4F6E1200106E1050D8B454EF00
:1016A2000BF056EF0BF078EF0BF00BBE5DEF0BF08B
:1016B2005BEF0BF078EF0BF008C00CF009C00DF0F7
:1016C2000AC00EF00BC00FF00C1E0D1E0E1E0F1ED8
:1016D2000C2A000E0D220E220F220CC012F00DC099
:1016E20013F00EC014F00FC015F080EF0BF008C01D
:1016F20012F009C013F00AC014F00BC015F0085024
:1017020009100A100B10D8A489EF0BF08BEF0BF025
:1017120095EF0BF0000E086E000E096E000E0A6EB9
:10172200000E0B6E26EF0CF0960E116E9FEF0BF073
:10173200112AD8901532143213321232000E1214BA
:101742000C6E000E13140D6E000E14140E6EFE0EAF
:1017520015140F6E0C500D100E100F10D8A4B4EF0C
:101762000BF0B6EF0BF099EF0BF0C4EF0BF0112A70
:10177200010E1226000E132214221522D8901532C1
:10178200143213321232000E12140C6E000E1314A5
:101792000D6E000E14140E6EFF0E15140F6E0C500B
:1017A2000D100E100F10D8A4D9EF0BF0DBEF0BF0D9
:1017B200B8EF0BF0E3EF0BF01106D89012361336A8
:1017C2001436153614BEE8EF0BF0EAEF0BF0F2EF29
:1017D2000BF0020E1160F0EF0BF0F2EF0BF0DDEF09
:1017E2000BF011B0F7EF0BF0F9EF0BF0FAEF0BF093
:1017F200149ED890113211C00CF00D6A0E6A0F6A55
:101802000CC00FF00E6A0D6A0C6A0C5012120D50C9
:1018120013120E5014120F5015121050D8B414EFA8
:101822000CF016EF0CF01EEF0CF00BBE1DEF0CF0DF
:101832001BEF0CF01EEF0CF0158E12C008F013C057
:1018420009F014C00AF015C00BF01200240E036E4A
:101852000350D8A4060E046E800E056E54EC10F0F0
:10186200720E036E046AC00E056E54EC10F0AE0EDA
:101872001A6E470E1B6E250E1C6E410E1D6E040E57
:101882003CEC11F001C008F002C009F00A6A0B6AD0
:10189200000E4DEC0BF008C016F009C017F00AC09C
:1018A20018F00BC019F07AEC07F016C02FF017C031
:1018B20030F018C031F019C032F037EC0EF02FC002
:1018C2005DF030C05EF0CE0E086E5DC001F05EC00D
:1018D20002F0000E046E0A0E036E1AEC10F00150B4
:1018E200300F07EC12F0CF0E086E5DC001F05EC043
:1018F20002F0000E046E0A0E036E8AEC10F0015024
:10190200300F07EC12F0010E9CEC0FF05F6E020E2E
:101912005F18D8A48FEF0CF091EF0CF0B2EF0CF03F
:10192200070E5B185C10D8A499EF0CF09BEF0CF03B
:10193200A1EF0CF0000E5C6E010E5B6EE7EF0CF097
:101942005C5007E1060E5B5CD8B0AAEF0CF0ACEF7E
:101952000CF0E7EF0CF05B4A5C2AF8EC0CF0E7EFD6
:101962000CF0030E5F18D8A4B9EF0CF0BBEF0CF02B
:10197200D9EF0CF0070E5B185C10D8A4C3EF0CF083
:10198200C5EF0CF0C9EF0CF0000E5C6E010E5B6E41
:101992005C5009E1020E5B5CD8A0D2EF0CF0D4EFF0
:1019A2000CF0E7EF0CF05B06D8A05C06AEEF0CF093
:1019B2005F04D8A4DFEF0CF0E1EF0CF0E7EF0CF0DE
:1019C200000E5C6E070E5B6EAEEF0CF05B50600FAC
:1019D200D96EDA6ADF50396E39C003F00350D8A4E9
:1019E200060E046EC90E056E54EC10F0120072C0A1
:1019F20008F05750EBEC10F0574A582A73C008F021
:101A02005750EBEC10F0574A582A75C008F057505F
:101A1200EBEC10F0574A582A76C008F05750EBEC1E
:101A220010F0574A582A78C008F05750EBEC10F0E3
:101A3200574A582A79C008F05750EBEC10F0574A31
:101A4200582A5B50600FD96EDA6ADFCFF6FF060EB6
:101A5200F76E0800F5CF08F05750EBEC10F0574A3C
:101A6200582A5B50600FD96EDA6ADF500E6E010E93
:101A72000E260EC0F6FF060EF76E0800F5CF08F030
:101A82005750EBEC10F0574A582A5DC001F05EC087
:101A920002F0000E046E0A0E036E1AEC10F00150F2
:101AA200300F086E5750EBEC10F0574A582A5DC0C1
:101AB20001F05EC002F0000E046E0A0E036E8AECA4
:101AC20010F00150300F086E5750EBEC10F0574AEF
:101AD200582A585009E1640E575CD8A073EF0DF0F4
:101AE20075EF0DF079EF0DF0000E586E000E576E87
:101AF200565007E10A0E555CD8B082EF0DF084EF24
:101B02000DF088EF0DF0554A562A98EF0DF0010EB0
:101B12004B24016E000E4C20026E000E046E0A0E63
:101B2200036E8AEC10F001C04BF002C04CF01200C0
:101B320051505210D8A4A0EF0DF0A2EF0DF0AEEF6D
:101B42000DF0800E086E2A0E07EC12F0C00E086E21
:101B5200200E07EC12F0C1EF0DF051045210D8A480
:101B6200B5EF0DF0B7EF0DF0C1EF0DF0800E086E7E
:101B7200200E07EC12F0C00E086E2A0E07EC12F0CF
:101B82004F50680FD96EDA6ADF500A6E0AC003F04E
:101B92000350D8A4060E046E810E056E54EC10F0AC
:101BA2004F50690FD96EDA6ADF500A6E0AC003F02D
:101BB2000350D8A4060E046EC10E056E54EC10F04C
:101BC200020E5F18D8A4E8EF0DF0EAEF0DF013EF64
:101BD2000EF0505007E1030E4F5CD8B0F3EF0DF05A
:101BE200F5EF0DF013EF0EF051505210D8A4FCEFA8
:101BF2000DF0FEEF0DF004EF0EF0000E526E010E2E
:101C0200516E36EF0EF0505007E1020E4F5CD8B025
:101C12000DEF0EF00FEF0EF036EF0EF04F4A502A96
:101C220036EF0EF05F04D8A419EF0EF01BEF0EF0A2
:101C320036EF0EF051045210D8A422EF0EF024EF2A
:101C42000EF02AEF0EF0000E526E000E516E36EFBD
:101C52000EF04F505010D8B431EF0EF033EF0EF0BB
:101C620036EF0EF04F06D8A050061200313432344F
:101C7200386E3850D8A440EF0EF042EF0EF04CEF21
:101C82000EF0000E2F6E000E306E000E316E000E42
:101C9200326EB9EF0EF02FC033F030C034F031C0E5
:101CA20035F032C036F0200E5CEF0EF0D8903632AE
:101CB200353234323332E82E57EF0EF03350376E6E
:101CC200318EFF0E2F16FF0E3016FF0E3116000E4C
:101CD2003216960E385E38BE73EF0EF071EF0EF0CC
:101CE20089EF0EF03850800A970FD8B07BEF0EF0D4
:101CF2007DEF0EF07FEF0EF042EF0EF0D890323211
:101D0200313230322F32383E7FEF0EF0A1EF0EF03B
:101D12001F0E38648FEF0EF091EF0EF099EF0EF078
:101D220042EF0EF0D8902F36303631363236380642
:101D32003850D8A49FEF0EF0A1EF0EF093EF0EF003
:101D42003750D8B4A7EF0EF0A9EF0EF0B1EF0EF0B6
:101D5200321E311E301E2F6C000E302231223222F2
:101D62002FC02FF030C030F031C031F032C032F02D
:101D72001200956A9450F80B946E8290C30E036E13
:101D8200CD0EE82EFED7032EFCD70000000E016E0A
:101D9200330E81EC11F01B0E036E9E0EE82EFED761
:101DA200032EFCD700D0000E016E330E81EC11F031
:101DB200A60EE82EFED700D0000E016E330E81EC87
:101DC20011F000D000D00000000E016E020E81EC76
:101DD20011F0A60EE82EFED700D0000E016E380ECE
:101DE20081EC11F0A60EE82EFED700D0000E016E97
:101DF200010E81EC11F0040E036E3E0EE82EFED7AA
:101E0200032EFCD7000E016E0C0E81EC11F0A60E13
:101E1200E82EFED700D01200454A462A4550461009
:101E2200D8B416EF0FF018EF0FF02DEF0FF0E90E08
:101E3200455C030E4658D8B021EF0FF023EF0FF0A8
:101E42002DEF0FF0130E036E0350D8A4060E046E8E
:101E5200800E056E54EC10F0E80E451807E1030EF3
:101E62004618D8A437EF0FF039EF0FF05AEF0FF002
:101E7200000E016E010E81EC11F0000E566E000E86
:101E8200556E000E586E000E576E000E506E000E0C
:101E92004F6E000E526E000E516E000E5A6E000E04
:101EA200596E000E546E010E536E000E466E000EF9
:101EB200456E1200020EC8EC11F03A6E010EC8EC2B
:101EC20011F03B6E000EC8EC11F03C6E3AAC6CEFB8
:101ED2000FF06EEF0FF07AEF0FF03A380F0B010BA5
:101EE200300F0001726F3A500F0B300F736F84EF97
:101EF2000FF03A380F0B030B300F0001726F3A509C
:101F02000F0B300F736F3A0E746F3B380F0B0F0BC2
:101F1200300F756F3B500F0B300F766F3A0E776FA5
:101F22003C380F0B0F0B300F786F3C500F0B300FFC
:101F3200796F7A6B1200016E0150D8A4A3EF0FF0F3
:101F4200A5EF0FF0A9EF0FF0DCEC0FF0DBEF0FF0D5
:101F52000104D8A4AFEF0FF0B1EF0FF0DAEF0FF0FA
:101F6200DCEC0FF0026E0250D8B4BAEF0FF0BCEF07
:101F72000FF0CDEF0FF000016C516D11D8B4C4EF2A
:101F82000FF0C6EF0FF0CDEF0FF0000E6D6F000EE9
:101F92006C6F0250DBEF0FF00250D8A4D3EF0FF0BA
:101FA200D5EF0FF0DAEF0FF0000E00016D6F010EAA
:101FB2006C6F000E1200819A818C818E81B2E4EFE7
:101FC2000FF0E6EF0FF0E9EF0FF0010E19EF10F04E
:101FD20081B4EEEF0FF0F0EF0FF0F3EF0FF0040E1D
:101FE20019EF10F0818A819C818E81B2FBEF0FF094
:101FF200FDEF0FF000EF10F0020E19EF10F081B4B8
:1020020005EF10F007EF10F00AEF10F0050E19EFD0
:1020120010F0818A818C819E819E81B213EF10F033
:1020220015EF10F018EF10F0030E19EF10F0000E7C
:102032001200000E066E000E056E03500410D8B496
:1020420025EF10F027EF10F04FEF10F0010E076EA2
:102052002FEF10F0D89003360436072A04AE34EF7F
:1020620010F036EF10F02BEF10F0D8900536063650
:102072000350015C04500258D8A042EF10F044EF24
:1020820010F049EF10F00350015E0450025A05802F
:10209200D89004320332072E36EF10F005C001F05B
:1020A20006C002F01200000E016E055081EC11F024
:1020B20071EF10F0010E016E03C0F6FF04C0F7FFCE
:1020C200F86A050EF76403D00800F55005D0F6CF84
:1020D200E9FFF7CFEAFFEF5081EC11F0034A042A3F
:1020E20003C0F6FF04C0F7FFF86A050EF76403D0D9
:1020F2000800F55005D0F6CFE9FFF7CFEAFFEF5021
:102102000009D8A487EF10F089EF10F05BEF10F010
:10211200120003500410D8B491EF10F093EF10F0B6
:10212200B7EF10F0010E056E9BEF10F0D89003365A
:102132000436052A04AEA0EF10F0A2EF10F097EFDC
:1021420010F00350015C04500258D8A0ABEF10F01D
:10215200ADEF10F0B1EF10F00350015E0450025ADF
:10216200D89004320332052EA2EF10F001C001F024
:1021720002C002F01200D2EF10F002C0F6FF03C05C
:10218200F7FFF86A050EF76403D00800F55005D092
:10219200F6CFE9FFF7CFEAFFEF501EEC12F0024A4A
:1021A200032A02C0F6FF03C0F7FFF86A050EF764C0
:1021B20003D00800F55005D0F6CFE9FFF7CFEAFFCC
:1021C200EF500009D8A4E8EF10F0EAEF10F0BEEFEC
:1021D20010F012000D6E59EC12F0A00E47EC12F046
:1021E2000D5047EC12F0085047EC12F055EC12F08B
:1021F200E80E096E030E0A6E000E0B6E000E0C6ED8
:102202000906000E0A5A0B5A0C5A09280AE10A2832
:1022120008E10B2806E10C28D8A412EF11F014EF04
:1022220011F001EF11F01200740EF66E240EF76E2B
:10223200000EF86E00EE60F010EE0EF00900F5CF21
:10224200EEFFE550E150FAE101EE00F0960EEE6A83
:10225200E806FDE100EE6EF00D0EEE6AE806FDE125
:1022620000EE3AF0260EEE6AE806FDE1000EF86E88
:10227200000142EF09F0076E07C003F0D890033661
:10228200D8900336C250C30B0310C26EC282C2B2D0
:102292004DEF11F04FEF11F048EF11F0C350C4CFE2
:1022A20003F0046A03C004F0036A0310056E0450CD
:1022B200066E05C001F006C002F01200000EC8EC66
:1022C20011F00A6E0A508009086E000EDDEC11F062
:1022D200020EC8EC11F00A6E0A504009086E020E96
:1022E200DDEC11F0930E086E070EDDEC11F0000E1E
:1022F200C8EC11F0000E086E000EDDEC11F01200B9
:10230200026E01B087EF11F08AEF11F082828BEF3B
:1023120011F0829202C083FF82848294958E828021
:1023220082928284829483BE99EF11F09BEF11F026
:1023320092EF11F08290959E1200026E59EC12F00B
:10234200A00E47EC12F0025047EC12F04DEC12F0E6
:10235200A10E47EC12F041EC12F0036E55EC12F0B4
:1023620003501200948E949CAC9CAC8AAC98AC96B0
:10237200AC84AB8EAB9CAB88B89EB896B892B89042
:10238200810EAF6E9D889E989D8A9E9A1200026E63
:1023920059EC12F0D00E47EC12F0025047EC12F05A
:1023A2004DEC12F0D10E47EC12F041EC12F0036E3C
:1023B20055EC12F003501200096E59EC12F0D00ED7
:1023C20047EC12F0095047EC12F0085047EC12F0BB
:1023D20055EC12F01200C08EC09AC088C096C09010
:1023E200C082C094C292C19AC198C46AC36AC280B0
:1023F2001200BAEC0EF0ECEC11F032EC12F0B3EC8D
:1024020011F013EC12F05FEC11F01200096E000EE5
:10241200016E085081EC11F0010E016E095081EC41
:1024220011F0120094869488280EC66E310EC86E82
:10243200C79CC78E9E96A1961200016E9EA824EF9D
:1024420012F026EF12F01FEF12F001C0ADFF1200E2
:102452009EA62EEF12F030EF12F029EF12F09E96A8
:10246200120093501F0B936E93501E09936EF19EB0
:102472001200E7E4EAD8DBDEE1ED566676460100BB
:1024820051EC12F05DEC12F0C9501200016E01C065
:10249200C9FF29EC12F01200C58229EC12F01200D9
:1024A200C58629EC12F01200C58429EC12F0120044
:0E24B200C58029EC12F01200C58AC588120000
:020000040020DA
:08000000FFFFFFFFFFFFFFFF00
:020000040030CA
:0E000000FF071F1FFF8285FF0FC00FE00F409C
:00000001FF
